:020000040000fa
:080000000002040000000000f2
:020000040000fa
:100008009a0200009a0200009a0200009a02000078
:100018009a0200009a0200009a0200009a02000068
:100028009a0200009a0200009a0200009a02000058
:100038009a0200009a0200009a02000008030000d9
:100048009a0200009a0200009a0200009a02000038
:100058009a0200009a0200009a0200009a02000028
:100068009a0200009a0200009a020000de020000d4
:100078009a0200009a0200009a0200009a02000008
:100088009a0200009a0200009a0200009a020000f8
:100098009a0200009a0200009a0200009a020000e8
:1000a8009a0200009a0200009a0200009a020000d8
:1000b8009a0200009a0200009a0200009a020000c8
:1000c8009a0200009a0200009a0200009a020000b8
:1000d8009a0200009a0200009a0200009a020000a8
:1000e8009a0200009a0200009a0200009a02000098
:1000f8009a0200009a0200009a0200009a02000088
:100108009a0200009a0200009a0200009a02000077
:100118009a0200009a0200009a0200009a02000067
:100128009a0200009a0200009a0200009a02000057
:100138009a0200009a0200009a0200009a02000047
:100148009a0200009a0200009a0200009a02000037
:100158009a0200009a0200009a0200009a02000027
:100168009a0200009a0200009a0200009a02000017
:100178009a0200009a0200009a0200009a02000007
:100188009a0200009a0200009a0200009a020000f7
:100198009a0200009a0200009a0200009a020000e7
:1001a8009a0200009a0200009a0200009a020000d7
:1001b8009a0200009a0200009a0200009a020000c7
:1001c8009a0200009a0200009a0200009a020000b7
:1001d8009a0200009a0200009a0200009a020000a7
:1001e8009a0200009a0200009a0200009a02000097
:0801f8009a0200009a020000c7
:020000040000fa
:100208009a0200009a0200009a0200009a02000076
:100218009a0200009a0200009a0200009a02000066
:100228009a0200009a0200009a0200009a02000056
:100238009a0200009a0200009a02000008030000d7
:100248009a0200009a0200009a0200009a02000036
:100258009a0200009a0200009a0200009a02000026
:100268009a0200009a0200009a020000de020000d2
:100278009a0200009a0200009a0200009a02000006
:100288009a0200009a0200009a0200009a020000f6
:100298009a0200009a0200009a0200009a020000e6
:1002a8009a0200009a0200009a0200009a020000d6
:1002b8009a0200009a0200009a0200009a020000c6
:1002c8009a0200009a0200009a0200009a020000b6
:1002d8009a0200009a0200009a0200009a020000a6
:1002e8009a0200009a0200009a0200009a02000096
:1002f8009a0200009a0200009a0200009a02000086
:100308009a0200009a0200009a0200009a02000075
:100318009a0200009a0200009a0200009a02000065
:100328009a0200009a0200009a0200009a02000055
:100338009a0200009a0200009a0200009a02000045
:100348009a0200009a0200009a0200009a02000035
:100358009a0200009a0200009a0200009a02000025
:100368009a0200009a0200009a0200009a02000015
:100378009a0200009a0200009a0200009a02000005
:100388009a0200009a0200009a0200009a020000f5
:100398009a0200009a0200009a0200009a020000e5
:1003a8009a0200009a0200009a0200009a020000d5
:1003b8009a0200009a0200009a0200009a020000c5
:1003c8009a0200009a0200009a0200009a020000b5
:1003d8009a0200009a0200009a0200009a020000a5
:1003e8009a0200009a0200009a0200009a02000095
:0803f8009a0200009a020000c5
:020000040000fa
:100400006f8020000e7f22000e0188000000000097
:10041000000020000000e000020032000001200087
:10042000200288000c000700a03e200001002000f0
:1004300011000700000020000000e0000200320070
:1004400000000200000000009e0202000000000008
:100450000040da000000fe004440a9000000200037
:100460000000e0000300320000002000a00188002e
:100470004440a80000000600910188008000780038
:100480000000eb0015003700e280400032a0b4000d
:100490009101ba00e280400032a0b4009102ba009b
:1004a000e280400032a0b4000002eb00472bde00e7
:1004b000f507b200602ce10004003a000059eb009f
:1004c0008301e900fdff3e00040037006128e100e0
:1004d000010032000082eb00040007001101ba00a5
:1004e0000200e000e8ff3a00000006003159ba00bf
:1004f0008301e9000c0032002159ba008301e900b0
:10050000080032000400e00003003a00e2804000ee
:1005100032a0b400f5ff370011d9ba008301e90019
:10052000faff3a008100e800e180400032a0b40008
:0c053000000006000040da000000fe00a1
:020000040000fa
:10053c000000fa0096000700860007009b000700e9
:10054c002400200004408800010037000000000057
:10055c000440800005002000460020000700200019
:10056c00860f5200878f5a00f8ff3e00046001008e
:10057c00060037000900370002003700050037007d
:10058c000800370028000700080037002c0007007f
:10059c000600370027000700040037002f00070073
:1005ac00020037003400070000000000e8ff3700ad
:1005bc00801f7800841f78003400f80000002000b1
:1005cc00a00188000000fa008660a9005416800083
:1005dc0070026200e00f520003003a000002eb00d0
:1005ec0004408800020037001400200004408800fa
:1005fc000080fa003400f9004f0278004f007800b8
:10060c00004006003400f800881f78000800200025
:10061c00a80188004f0478000000fa000080fa005e
:10062c003400f900004006000000fa000080fa00d7
:10063c00000006000000fa000080fa00000006002e
:10064c000000fa0050002000340007004400200095
:10065c00044088000080fa00000006000000fa0048
:10066c00500020002d0007002400200004408800ca
:10067c000080fa00000006000000fa0064168000fa
:10068c006202620004f0a7000402ea000402e9001e
:10069c004f22de00044278000482fb0061026200fb
:1006ac000402420066168000d5ff2f00850263000d
:1006bc0005027200641688006416800061026200f4
:1006cc0004f0a7000402ea000402e9004f22de0055
:1006dc00044278000482fb0061026200661680000e
:1006ec00e5ff2f0085026300050272006416880086
:1006fc005416800070026200e00f520003003a00b2
:10070c003400200004408800020037002400200040
:10071c00044088000080fa00000006000200fa0085
:10072c00000f780084e0a90011e1a800000000008f
:10073c00250480000408200004826200e00f5200af
:10074c00fbff320084e0a90011e1a9000080fa004f
:10075c00000006000200fa0084032000040f780059
:10076c000002eb00340888001e0278006408880040
:10077c00840880000440a0000450a0008408880075
:10078c0084e0a90011e1a8000080fa000000060036
:10079c000000fa00c802a900c822a900cc02a900d6
:1007ac00cc22a8000080fa00000006000000fa002d
:1007bc00c882a9008660a9009660a8006020a800e5
:0807cc000080fa0000000600a5
:020000040000fa
:1007d40004080000020000000000000000080000ff
:0c07e40004000000000000000000000005
:020000040000fa
:020000040001f9
:0457f800ad7b000085
:020000040000fa
:020000040001f9
:0457fc003f3f00002b
:00000001FF
